{
  "contractName": "UbnToken",
  "abi": [
    {
      "constant": true,
      "inputs": [],
      "name": "totalSupply",
      "outputs": [
        {
          "name": "",
          "type": "uint256"
        }
      ],
      "payable": false,
      "stateMutability": "view",
      "type": "function"
    },
    {
      "inputs": [],
      "payable": false,
      "stateMutability": "nonpayable",
      "type": "constructor"
    }
  ],
  "bytecode": "0x608060405234801561001057600080fd5b50620f4240600081905550609e806100296000396000f300608060405260043610603f576000357c0100000000000000000000000000000000000000000000000000000000900463ffffffff16806318160ddd146044575b600080fd5b348015604f57600080fd5b506056606c565b6040518082815260200191505060405180910390f35b600054815600a165627a7a72305820fe3ff06a0e2a0c4459c4628b319f0a0736a8688a99d62b2b79c240cd467723f30029",
  "source": "pragma  solidity ^0.4.23;\n\ncontract UbnToken {\n\t  //Constractor\n\t  //Set the number of tokens\n\t  //Read the total number of tokens \n\t  uint256 public totalSupply;\n\n\t  function UbnToken() public {\n\t  \ttotalSupply = 1000000;\n\t  }\n}\n",
  "sourcePath": "/home/alexander/token_sale/contracts/UbnToken.sol",
  "compiler": {
    "name": "solc",
    "version": "0.4.24+commit.e67f0147.Emscripten.clang"
  },
  "schemaVersion": "2.0.1",
  "updatedAt": "2018-11-12T11:07:26.947Z"
}